{
  "contractName": "Exchange",
  "abi": [
    {
      "inputs": [
        {
          "internalType": "address",
          "name": "_feeAccount",
          "type": "address"
        },
        {
          "internalType": "uint256",
          "name": "_feePercent",
          "type": "uint256"
        }
      ],
      "stateMutability": "nonpayable",
      "type": "constructor"
    },
    {
      "anonymous": false,
      "inputs": [
        {
          "indexed": false,
          "internalType": "uint256",
          "name": "id",
          "type": "uint256"
        },
        {
          "indexed": false,
          "internalType": "address",
          "name": "user",
          "type": "address"
        },
        {
          "indexed": false,
          "internalType": "address",
          "name": "tokenGet",
          "type": "address"
        },
        {
          "indexed": false,
          "internalType": "uint256",
          "name": "amountGet",
          "type": "uint256"
        },
        {
          "indexed": false,
          "internalType": "address",
          "name": "tokenGive",
          "type": "address"
        },
        {
          "indexed": false,
          "internalType": "uint256",
          "name": "amountGive",
          "type": "uint256"
        },
        {
          "indexed": false,
          "internalType": "uint256",
          "name": "timestamp",
          "type": "uint256"
        }
      ],
      "name": "Cancel",
      "type": "event"
    },
    {
      "anonymous": false,
      "inputs": [
        {
          "indexed": false,
          "internalType": "address",
          "name": "token",
          "type": "address"
        },
        {
          "indexed": false,
          "internalType": "address",
          "name": "user",
          "type": "address"
        },
        {
          "indexed": false,
          "internalType": "uint256",
          "name": "amount",
          "type": "uint256"
        },
        {
          "indexed": false,
          "internalType": "uint256",
          "name": "balance",
          "type": "uint256"
        }
      ],
      "name": "Deposit",
      "type": "event"
    },
    {
      "anonymous": false,
      "inputs": [
        {
          "indexed": false,
          "internalType": "uint256",
          "name": "id",
          "type": "uint256"
        },
        {
          "indexed": false,
          "internalType": "address",
          "name": "user",
          "type": "address"
        },
        {
          "indexed": false,
          "internalType": "address",
          "name": "tokenGet",
          "type": "address"
        },
        {
          "indexed": false,
          "internalType": "uint256",
          "name": "amountGet",
          "type": "uint256"
        },
        {
          "indexed": false,
          "internalType": "address",
          "name": "tokenGive",
          "type": "address"
        },
        {
          "indexed": false,
          "internalType": "uint256",
          "name": "amountGive",
          "type": "uint256"
        },
        {
          "indexed": false,
          "internalType": "uint256",
          "name": "timestamp",
          "type": "uint256"
        }
      ],
      "name": "Order",
      "type": "event"
    },
    {
      "anonymous": false,
      "inputs": [
        {
          "indexed": false,
          "internalType": "uint256",
          "name": "id",
          "type": "uint256"
        },
        {
          "indexed": false,
          "internalType": "address",
          "name": "user",
          "type": "address"
        },
        {
          "indexed": false,
          "internalType": "address",
          "name": "tokenGet",
          "type": "address"
        },
        {
          "indexed": false,
          "internalType": "uint256",
          "name": "amountGet",
          "type": "uint256"
        },
        {
          "indexed": false,
          "internalType": "address",
          "name": "tokenGive",
          "type": "address"
        },
        {
          "indexed": false,
          "internalType": "uint256",
          "name": "amountGive",
          "type": "uint256"
        },
        {
          "indexed": false,
          "internalType": "address",
          "name": "userFill",
          "type": "address"
        },
        {
          "indexed": false,
          "internalType": "uint256",
          "name": "timestamp",
          "type": "uint256"
        }
      ],
      "name": "Trade",
      "type": "event"
    },
    {
      "anonymous": false,
      "inputs": [
        {
          "indexed": false,
          "internalType": "address",
          "name": "token",
          "type": "address"
        },
        {
          "indexed": false,
          "internalType": "address",
          "name": "user",
          "type": "address"
        },
        {
          "indexed": false,
          "internalType": "uint256",
          "name": "amount",
          "type": "uint256"
        },
        {
          "indexed": false,
          "internalType": "uint256",
          "name": "balance",
          "type": "uint256"
        }
      ],
      "name": "Withdraw",
      "type": "event"
    },
    {
      "inputs": [],
      "name": "feeAccount",
      "outputs": [
        {
          "internalType": "address",
          "name": "",
          "type": "address"
        }
      ],
      "stateMutability": "view",
      "type": "function",
      "constant": true
    },
    {
      "inputs": [],
      "name": "feePercent",
      "outputs": [
        {
          "internalType": "uint256",
          "name": "",
          "type": "uint256"
        }
      ],
      "stateMutability": "view",
      "type": "function",
      "constant": true
    },
    {
      "inputs": [
        {
          "internalType": "uint256",
          "name": "",
          "type": "uint256"
        }
      ],
      "name": "orderCancelled",
      "outputs": [
        {
          "internalType": "bool",
          "name": "",
          "type": "bool"
        }
      ],
      "stateMutability": "view",
      "type": "function",
      "constant": true
    },
    {
      "inputs": [],
      "name": "orderCount",
      "outputs": [
        {
          "internalType": "uint256",
          "name": "",
          "type": "uint256"
        }
      ],
      "stateMutability": "view",
      "type": "function",
      "constant": true
    },
    {
      "inputs": [
        {
          "internalType": "uint256",
          "name": "",
          "type": "uint256"
        }
      ],
      "name": "orderFilled",
      "outputs": [
        {
          "internalType": "bool",
          "name": "",
          "type": "bool"
        }
      ],
      "stateMutability": "view",
      "type": "function",
      "constant": true
    },
    {
      "inputs": [
        {
          "internalType": "uint256",
          "name": "",
          "type": "uint256"
        }
      ],
      "name": "orders",
      "outputs": [
        {
          "internalType": "uint256",
          "name": "id",
          "type": "uint256"
        },
        {
          "internalType": "address",
          "name": "user",
          "type": "address"
        },
        {
          "internalType": "address",
          "name": "tokenGet",
          "type": "address"
        },
        {
          "internalType": "uint256",
          "name": "amountGet",
          "type": "uint256"
        },
        {
          "internalType": "address",
          "name": "tokenGive",
          "type": "address"
        },
        {
          "internalType": "uint256",
          "name": "amountGive",
          "type": "uint256"
        },
        {
          "internalType": "uint256",
          "name": "timestamp",
          "type": "uint256"
        }
      ],
      "stateMutability": "view",
      "type": "function",
      "constant": true
    },
    {
      "inputs": [],
      "name": "token",
      "outputs": [
        {
          "internalType": "contract Token",
          "name": "",
          "type": "address"
        }
      ],
      "stateMutability": "view",
      "type": "function",
      "constant": true
    },
    {
      "inputs": [
        {
          "internalType": "address",
          "name": "",
          "type": "address"
        },
        {
          "internalType": "address",
          "name": "",
          "type": "address"
        }
      ],
      "name": "tokens",
      "outputs": [
        {
          "internalType": "uint256",
          "name": "",
          "type": "uint256"
        }
      ],
      "stateMutability": "view",
      "type": "function",
      "constant": true
    },
    {
      "stateMutability": "payable",
      "type": "receive",
      "payable": true
    },
    {
      "inputs": [],
      "name": "depositEther",
      "outputs": [],
      "stateMutability": "payable",
      "type": "function",
      "payable": true
    },
    {
      "inputs": [
        {
          "internalType": "uint256",
          "name": "_amount",
          "type": "uint256"
        }
      ],
      "name": "withdrawEther",
      "outputs": [],
      "stateMutability": "nonpayable",
      "type": "function"
    },
    {
      "inputs": [
        {
          "internalType": "address",
          "name": "_token",
          "type": "address"
        },
        {
          "internalType": "uint256",
          "name": "_amount",
          "type": "uint256"
        }
      ],
      "name": "depositToken",
      "outputs": [],
      "stateMutability": "nonpayable",
      "type": "function"
    },
    {
      "inputs": [
        {
          "internalType": "address",
          "name": "_token",
          "type": "address"
        },
        {
          "internalType": "uint256",
          "name": "_amount",
          "type": "uint256"
        }
      ],
      "name": "withdrawToken",
      "outputs": [],
      "stateMutability": "nonpayable",
      "type": "function"
    },
    {
      "inputs": [
        {
          "internalType": "address",
          "name": "_token",
          "type": "address"
        },
        {
          "internalType": "address",
          "name": "_user",
          "type": "address"
        }
      ],
      "name": "balanceOf",
      "outputs": [
        {
          "internalType": "uint256",
          "name": "",
          "type": "uint256"
        }
      ],
      "stateMutability": "view",
      "type": "function",
      "constant": true
    },
    {
      "inputs": [
        {
          "internalType": "address",
          "name": "_tokenGet",
          "type": "address"
        },
        {
          "internalType": "uint256",
          "name": "_amountGet",
          "type": "uint256"
        },
        {
          "internalType": "address",
          "name": "_tokenGive",
          "type": "address"
        },
        {
          "internalType": "uint256",
          "name": "_amountGive",
          "type": "uint256"
        }
      ],
      "name": "makeOrder",
      "outputs": [],
      "stateMutability": "nonpayable",
      "type": "function"
    },
    {
      "inputs": [
        {
          "internalType": "uint256",
          "name": "_id",
          "type": "uint256"
        }
      ],
      "name": "cancelOrder",
      "outputs": [],
      "stateMutability": "nonpayable",
      "type": "function"
    },
    {
      "inputs": [
        {
          "internalType": "uint256",
          "name": "_id",
          "type": "uint256"
        }
      ],
      "name": "fillOrder",
      "outputs": [],
      "stateMutability": "nonpayable",
      "type": "function"
    }
  ],
  "bytecode": "0x60806040523480156200001157600080fd5b5060405162002337380380620023378339818101604052810190620000379190620000b5565b81600160006101000a81548173ffffffffffffffffffffffffffffffffffffffff021916908373ffffffffffffffffffffffffffffffffffffffff16021790555080600281905550505062000168565b600081519050620000988162000134565b92915050565b600081519050620000af816200014e565b92915050565b60008060408385031215620000c957600080fd5b6000620000d98582860162000087565b9250506020620000ec858286016200009e565b9150509250929050565b600062000103826200010a565b9050919050565b600073ffffffffffffffffffffffffffffffffffffffff82169050919050565b6000819050919050565b6200013f81620000f6565b81146200014b57600080fd5b50565b62000159816200012a565b81146200016557600080fd5b50565b6121bf80620001786000396000f3fe6080604052600436106100f75760003560e01c80637fd6f15c1161008a578063a85c38ef11610059578063a85c38ef14610301578063e9c1896614610344578063f7888aec14610381578063fc0c546a146103be57610101565b80637fd6f15c1461027a57806398ea5fca146102a55780639a5c90aa146102af5780639e281a98146102d857610101565b8063508493bc116100c6578063508493bc146101c0578063514fcac7146101fd57806365e17c9d1461022657806367b830ad1461025157610101565b80632453ffa814610106578063338b5dea146101315780633bed33ce1461015a5780634a93e0da1461018357610101565b3661010157600080fd5b600080fd5b34801561011257600080fd5b5061011b6103e9565b6040516101289190611e4c565b60405180910390f35b34801561013d57600080fd5b5061015860048036038101906101539190611b43565b6103ef565b005b34801561016657600080fd5b50610181600480360381019061017c9190611c0b565b61068d565b005b34801561018f57600080fd5b506101aa60048036038101906101a59190611c0b565b610929565b6040516101b79190611dd6565b60405180910390f35b3480156101cc57600080fd5b506101e760048036038101906101e29190611b07565b610949565b6040516101f49190611e4c565b60405180910390f35b34801561020957600080fd5b50610224600480360381019061021f9190611c0b565b61096e565b005b34801561023257600080fd5b5061023b610b20565b6040516102489190611d16565b60405180910390f35b34801561025d57600080fd5b5061027860048036038101906102739190611c0b565b610b46565b005b34801561028657600080fd5b5061028f610c88565b60405161029c9190611e4c565b60405180910390f35b6102ad610c8e565b005b3480156102bb57600080fd5b506102d660048036038101906102d19190611b7f565b610e59565b005b3480156102e457600080fd5b506102ff60048036038101906102fa9190611b43565b61104c565b005b34801561030d57600080fd5b5061032860048036038101906103239190611c0b565b6112e8565b60405161033b9796959493929190611ee5565b60405180910390f35b34801561035057600080fd5b5061036b60048036038101906103669190611c0b565b61138a565b6040516103789190611dd6565b60405180910390f35b34801561038d57600080fd5b506103a860048036038101906103a39190611b07565b6113aa565b6040516103b59190611e4c565b60405180910390f35b3480156103ca57600080fd5b506103d3611431565b6040516103e09190611df1565b60405180910390f35b60045481565b600073ffffffffffffffffffffffffffffffffffffffff168273ffffffffffffffffffffffffffffffffffffffff16141561042957600080fd5b8173ffffffffffffffffffffffffffffffffffffffff166323b872dd3330846040518463ffffffff1660e01b815260040161046693929190611d31565b602060405180830381600087803b15801561048057600080fd5b505af1158015610494573d6000803e3d6000fd5b505050506040513d601f19601f820116820180604052508101906104b89190611be2565b6104c157600080fd5b61055081600360008573ffffffffffffffffffffffffffffffffffffffff1673ffffffffffffffffffffffffffffffffffffffff16815260200190815260200160002060003373ffffffffffffffffffffffffffffffffffffffff1673ffffffffffffffffffffffffffffffffffffffff1681526020019081526020016000205461145590919063ffffffff16565b600360008473ffffffffffffffffffffffffffffffffffffffff1673ffffffffffffffffffffffffffffffffffffffff16815260200190815260200160002060003373ffffffffffffffffffffffffffffffffffffffff1673ffffffffffffffffffffffffffffffffffffffff168152602001908152602001600020819055507fdcbc1c05240f31ff3ad067ef1ee35ce4997762752e3a095284754544f4c709d7823383600360008773ffffffffffffffffffffffffffffffffffffffff1673ffffffffffffffffffffffffffffffffffffffff16815260200190815260200160002060003373ffffffffffffffffffffffffffffffffffffffff1673ffffffffffffffffffffffffffffffffffffffff168152602001908152602001600020546040516106819493929190611d68565b60405180910390a15050565b80600360008073ffffffffffffffffffffffffffffffffffffffff1673ffffffffffffffffffffffffffffffffffffffff16815260200190815260200160002060003373ffffffffffffffffffffffffffffffffffffffff1673ffffffffffffffffffffffffffffffffffffffff16815260200190815260200160002054101561071657600080fd5b6107a581600360008073ffffffffffffffffffffffffffffffffffffffff1673ffffffffffffffffffffffffffffffffffffffff16815260200190815260200160002060003373ffffffffffffffffffffffffffffffffffffffff1673ffffffffffffffffffffffffffffffffffffffff1681526020019081526020016000205461146b90919063ffffffff16565b600360008073ffffffffffffffffffffffffffffffffffffffff1673ffffffffffffffffffffffffffffffffffffffff16815260200190815260200160002060003373ffffffffffffffffffffffffffffffffffffffff1673ffffffffffffffffffffffffffffffffffffffff168152602001908152602001600020819055503373ffffffffffffffffffffffffffffffffffffffff166108fc829081150290604051600060405180830381858888f1935050505015801561086b573d6000803e3d6000fd5b507ff341246adaac6f497bc2a656f546ab9e182111d630394f0c57c710a59a2cb56760003383600360008073ffffffffffffffffffffffffffffffffffffffff1673ffffffffffffffffffffffffffffffffffffffff16815260200190815260200160002060003373ffffffffffffffffffffffffffffffffffffffff1673ffffffffffffffffffffffffffffffffffffffff1681526020019081526020016000205460405161091e9493929190611d68565b60405180910390a150565b60076020528060005260406000206000915054906101000a900460ff1681565b6003602052816000526040600020602052806000526040600020600091509150505481565b60006005600083815260200190815260200160002090503373ffffffffffffffffffffffffffffffffffffffff168160010160009054906101000a900473ffffffffffffffffffffffffffffffffffffffff1673ffffffffffffffffffffffffffffffffffffffff1614610a17576040517f08c379a0000000000000000000000000000000000000000000000000000000008152600401610a0e90611e2c565b60405180910390fd5b81816000015414610a5d576040517f08c379a0000000000000000000000000000000000000000000000000000000008152600401610a5490611e0c565b60405180910390fd5b60016006600084815260200190815260200160002060006101000a81548160ff0219169083151502179055507f77de1da0be5f2d3b110d05c6694e5c4ff2d9da7cd23d84353ecf78c7b5acec6182338360020160009054906101000a900473ffffffffffffffffffffffffffffffffffffffff1684600301548560040160009054906101000a900473ffffffffffffffffffffffffffffffffffffffff16866005015442604051610b149796959493929190611ee5565b60405180910390a15050565b600160009054906101000a900473ffffffffffffffffffffffffffffffffffffffff1681565b600081118015610b5857506004548111155b610b6157600080fd5b6007600082815260200190815260200160002060009054906101000a900460ff1615610b8c57600080fd5b6006600082815260200190815260200160002060009054906101000a900460ff1615610bb757600080fd5b6000600560008381526020019081526020016000209050610c5481600001548260010160009054906101000a900473ffffffffffffffffffffffffffffffffffffffff168360020160009054906101000a900473ffffffffffffffffffffffffffffffffffffffff1684600301548560040160009054906101000a900473ffffffffffffffffffffffffffffffffffffffff168660050154611481565b6001600760008360000154815260200190815260200160002060006101000a81548160ff0219169083151502179055505050565b60025481565b610d1d34600360008073ffffffffffffffffffffffffffffffffffffffff1673ffffffffffffffffffffffffffffffffffffffff16815260200190815260200160002060003373ffffffffffffffffffffffffffffffffffffffff1673ffffffffffffffffffffffffffffffffffffffff1681526020019081526020016000205461145590919063ffffffff16565b600360008073ffffffffffffffffffffffffffffffffffffffff1673ffffffffffffffffffffffffffffffffffffffff16815260200190815260200160002060003373ffffffffffffffffffffffffffffffffffffffff1673ffffffffffffffffffffffffffffffffffffffff168152602001908152602001600020819055507fdcbc1c05240f31ff3ad067ef1ee35ce4997762752e3a095284754544f4c709d760003334600360008073ffffffffffffffffffffffffffffffffffffffff1673ffffffffffffffffffffffffffffffffffffffff16815260200190815260200160002060003373ffffffffffffffffffffffffffffffffffffffff1673ffffffffffffffffffffffffffffffffffffffff16815260200190815260200160002054604051610e4f9493929190611d68565b60405180910390a1565b610e6f600160045461145590919063ffffffff16565b6004819055506040518060e0016040528060045481526020013373ffffffffffffffffffffffffffffffffffffffff1681526020018573ffffffffffffffffffffffffffffffffffffffff1681526020018481526020018373ffffffffffffffffffffffffffffffffffffffff168152602001828152602001428152506005600060045481526020019081526020016000206000820151816000015560208201518160010160006101000a81548173ffffffffffffffffffffffffffffffffffffffff021916908373ffffffffffffffffffffffffffffffffffffffff16021790555060408201518160020160006101000a81548173ffffffffffffffffffffffffffffffffffffffff021916908373ffffffffffffffffffffffffffffffffffffffff1602179055506060820151816003015560808201518160040160006101000a81548173ffffffffffffffffffffffffffffffffffffffff021916908373ffffffffffffffffffffffffffffffffffffffff16021790555060a0820151816005015560c082015181600601559050507f9d33853d43e3607b4cc01fdc78338ff2dca6fef7db9232dae6d3eb55fbc3b10960045433868686864260405161103e9796959493929190611ee5565b60405180910390a150505050565b600073ffffffffffffffffffffffffffffffffffffffff168273ffffffffffffffffffffffffffffffffffffffff16141561108657600080fd5b8173ffffffffffffffffffffffffffffffffffffffff1663a9059cbb33836040518363ffffffff1660e01b81526004016110c1929190611dad565b602060405180830381600087803b1580156110db57600080fd5b505af11580156110ef573d6000803e3d6000fd5b505050506040513d601f19601f820116820180604052508101906111139190611be2565b61111c57600080fd5b6111ab81600360008573ffffffffffffffffffffffffffffffffffffffff1673ffffffffffffffffffffffffffffffffffffffff16815260200190815260200160002060003373ffffffffffffffffffffffffffffffffffffffff1673ffffffffffffffffffffffffffffffffffffffff1681526020019081526020016000205461146b90919063ffffffff16565b600360008473ffffffffffffffffffffffffffffffffffffffff1673ffffffffffffffffffffffffffffffffffffffff16815260200190815260200160002060003373ffffffffffffffffffffffffffffffffffffffff1673ffffffffffffffffffffffffffffffffffffffff168152602001908152602001600020819055507ff341246adaac6f497bc2a656f546ab9e182111d630394f0c57c710a59a2cb567823383600360008773ffffffffffffffffffffffffffffffffffffffff1673ffffffffffffffffffffffffffffffffffffffff16815260200190815260200160002060003373ffffffffffffffffffffffffffffffffffffffff1673ffffffffffffffffffffffffffffffffffffffff168152602001908152602001600020546040516112dc9493929190611d68565b60405180910390a15050565b60056020528060005260406000206000915090508060000154908060010160009054906101000a900473ffffffffffffffffffffffffffffffffffffffff16908060020160009054906101000a900473ffffffffffffffffffffffffffffffffffffffff16908060030154908060040160009054906101000a900473ffffffffffffffffffffffffffffffffffffffff16908060050154908060060154905087565b60066020528060005260406000206000915054906101000a900460ff1681565b6000600360008473ffffffffffffffffffffffffffffffffffffffff1673ffffffffffffffffffffffffffffffffffffffff16815260200190815260200160002060008373ffffffffffffffffffffffffffffffffffffffff1673ffffffffffffffffffffffffffffffffffffffff16815260200190815260200160002054905092915050565b60008054906101000a900473ffffffffffffffffffffffffffffffffffffffff1681565b600081836114639190611f65565b905092915050565b600081836114799190612046565b905092915050565b60006114ab606461149d60025485611a9c90919063ffffffff16565b611ab290919063ffffffff16565b905061154e6114c3828661145590919063ffffffff16565b600360008873ffffffffffffffffffffffffffffffffffffffff1673ffffffffffffffffffffffffffffffffffffffff16815260200190815260200160002060003373ffffffffffffffffffffffffffffffffffffffff1673ffffffffffffffffffffffffffffffffffffffff1681526020019081526020016000205461146b90919063ffffffff16565b600360008773ffffffffffffffffffffffffffffffffffffffff1673ffffffffffffffffffffffffffffffffffffffff16815260200190815260200160002060003373ffffffffffffffffffffffffffffffffffffffff1673ffffffffffffffffffffffffffffffffffffffff1681526020019081526020016000208190555061165d84600360008873ffffffffffffffffffffffffffffffffffffffff1673ffffffffffffffffffffffffffffffffffffffff16815260200190815260200160002060008973ffffffffffffffffffffffffffffffffffffffff1673ffffffffffffffffffffffffffffffffffffffff1681526020019081526020016000205461145590919063ffffffff16565b600360008773ffffffffffffffffffffffffffffffffffffffff1673ffffffffffffffffffffffffffffffffffffffff16815260200190815260200160002060008873ffffffffffffffffffffffffffffffffffffffff1673ffffffffffffffffffffffffffffffffffffffff1681526020019081526020016000208190555061178e81600360008873ffffffffffffffffffffffffffffffffffffffff1673ffffffffffffffffffffffffffffffffffffffff1681526020019081526020016000206000600160009054906101000a900473ffffffffffffffffffffffffffffffffffffffff1673ffffffffffffffffffffffffffffffffffffffff1673ffffffffffffffffffffffffffffffffffffffff1681526020019081526020016000205461145590919063ffffffff16565b600360008773ffffffffffffffffffffffffffffffffffffffff1673ffffffffffffffffffffffffffffffffffffffff1681526020019081526020016000206000600160009054906101000a900473ffffffffffffffffffffffffffffffffffffffff1673ffffffffffffffffffffffffffffffffffffffff1673ffffffffffffffffffffffffffffffffffffffff168152602001908152602001600020819055506118bf82600360008673ffffffffffffffffffffffffffffffffffffffff1673ffffffffffffffffffffffffffffffffffffffff16815260200190815260200160002060008973ffffffffffffffffffffffffffffffffffffffff1673ffffffffffffffffffffffffffffffffffffffff1681526020019081526020016000205461146b90919063ffffffff16565b600360008573ffffffffffffffffffffffffffffffffffffffff1673ffffffffffffffffffffffffffffffffffffffff16815260200190815260200160002060008873ffffffffffffffffffffffffffffffffffffffff1673ffffffffffffffffffffffffffffffffffffffff168152602001908152602001600020819055506119ce82600360008673ffffffffffffffffffffffffffffffffffffffff1673ffffffffffffffffffffffffffffffffffffffff16815260200190815260200160002060003373ffffffffffffffffffffffffffffffffffffffff1673ffffffffffffffffffffffffffffffffffffffff1681526020019081526020016000205461145590919063ffffffff16565b600360008573ffffffffffffffffffffffffffffffffffffffff1673ffffffffffffffffffffffffffffffffffffffff16815260200190815260200160002060003373ffffffffffffffffffffffffffffffffffffffff1673ffffffffffffffffffffffffffffffffffffffff168152602001908152602001600020819055507f0dddf4182dc0fc1a311cb75f049c97403c6b8a99cf6b2229a36e7c526acb3f818787878787873342604051611a8b989796959493929190611e67565b60405180910390a150505050505050565b60008183611aaa9190611fec565b905092915050565b60008183611ac09190611fbb565b905092915050565b600081359050611ad781612144565b92915050565b600081519050611aec8161215b565b92915050565b600081359050611b0181612172565b92915050565b60008060408385031215611b1a57600080fd5b6000611b2885828601611ac8565b9250506020611b3985828601611ac8565b9150509250929050565b60008060408385031215611b5657600080fd5b6000611b6485828601611ac8565b9250506020611b7585828601611af2565b9150509250929050565b60008060008060808587031215611b9557600080fd5b6000611ba387828801611ac8565b9450506020611bb487828801611af2565b9350506040611bc587828801611ac8565b9250506060611bd687828801611af2565b91505092959194509250565b600060208284031215611bf457600080fd5b6000611c0284828501611add565b91505092915050565b600060208284031215611c1d57600080fd5b6000611c2b84828501611af2565b91505092915050565b611c3d8161207a565b82525050565b611c4c8161208c565b82525050565b611c5b816120c2565b82525050565b6000611c6e601883611f54565b91507f546865206f7264657220646f6573206e6f7420657869737400000000000000006000830152602082019050919050565b6000611cae602283611f54565b91507f596f7520617265206e6f7420746865206f776e6572206f6620746865206f726460008301527f65720000000000000000000000000000000000000000000000000000000000006020830152604082019050919050565b611d10816120b8565b82525050565b6000602082019050611d2b6000830184611c34565b92915050565b6000606082019050611d466000830186611c34565b611d536020830185611c34565b611d606040830184611d07565b949350505050565b6000608082019050611d7d6000830187611c34565b611d8a6020830186611c34565b611d976040830185611d07565b611da46060830184611d07565b95945050505050565b6000604082019050611dc26000830185611c34565b611dcf6020830184611d07565b9392505050565b6000602082019050611deb6000830184611c43565b92915050565b6000602082019050611e066000830184611c52565b92915050565b60006020820190508181036000830152611e2581611c61565b9050919050565b60006020820190508181036000830152611e4581611ca1565b9050919050565b6000602082019050611e616000830184611d07565b92915050565b600061010082019050611e7d600083018b611d07565b611e8a602083018a611c34565b611e976040830189611c34565b611ea46060830188611d07565b611eb16080830187611c34565b611ebe60a0830186611d07565b611ecb60c0830185611c34565b611ed860e0830184611d07565b9998505050505050505050565b600060e082019050611efa600083018a611d07565b611f076020830189611c34565b611f146040830188611c34565b611f216060830187611d07565b611f2e6080830186611c34565b611f3b60a0830185611d07565b611f4860c0830184611d07565b98975050505050505050565b600082825260208201905092915050565b6000611f70826120b8565b9150611f7b836120b8565b9250827fffffffffffffffffffffffffffffffffffffffffffffffffffffffffffffffff03821115611fb057611faf6120e6565b5b828201905092915050565b6000611fc6826120b8565b9150611fd1836120b8565b925082611fe157611fe0612115565b5b828204905092915050565b6000611ff7826120b8565b9150612002836120b8565b9250817fffffffffffffffffffffffffffffffffffffffffffffffffffffffffffffffff048311821515161561203b5761203a6120e6565b5b828202905092915050565b6000612051826120b8565b915061205c836120b8565b92508282101561206f5761206e6120e6565b5b828203905092915050565b600061208582612098565b9050919050565b60008115159050919050565b600073ffffffffffffffffffffffffffffffffffffffff82169050919050565b6000819050919050565b60006120cd826120d4565b9050919050565b60006120df82612098565b9050919050565b7f4e487b7100000000000000000000000000000000000000000000000000000000600052601160045260246000fd5b7f4e487b7100000000000000000000000000000000000000000000000000000000600052601260045260246000fd5b61214d8161207a565b811461215857600080fd5b50565b6121648161208c565b811461216f57600080fd5b50565b61217b816120b8565b811461218657600080fd5b5056fea2646970667358221220c02624639a8360d74d202e473eee558a5f4e1550815615a9cd03ccbbd7b1656f64736f6c63430008000033",
  "immutableReferences": {},
  "source": "// SPDX-License-Identifier: MIT\npragma solidity >=0.4.22 <0.9.0;\n\nimport \"@openzeppelin/contracts/utils/math/SafeMath.sol\";\nimport \"./Token.sol\";\n\ncontract Exchange {\n    using SafeMath for uint256;\n\t\t\n\t\tToken public token; \n    address public feeAccount; // The account where fees go\n    uint256 public feePercent; // Fee percentage\n    address constant ETHER = address(0); // Allows for storing Ether in tokens mapping.\n    // Token address, user who deposited address, user balance\n    mapping(address => mapping(address => uint256)) public tokens;\n\t\t\n\t\t// Id generator cash\n\t\tuint256 public orderCount;\n\n\t\t// Storage for orders\n\t\tmapping(uint256 => _Order) public orders;\n\n\t\t// Storage for tracking cancelled orders\n\t\tmapping(uint256 => bool) public orderCancelled;\n\t\tmapping(uint256 => bool) public orderFilled;\n\n    // Events\n    event Deposit(\n\t\t\taddress token, \n\t\t\taddress user, \n\t\t\tuint256 amount, \n\t\t\tuint256 balance);\n    \n\t\tevent Withdraw(\n\t\t\taddress token,\n\t\t\taddress user, \n\t\t\tuint256 amount, \n\t\t\tuint256 balance);\n\n\t\tevent Order(\n\t\t\tuint id, \n\t\t\taddress user, \n\t\t\taddress tokenGet, \n\t\t\tuint amountGet, \n\t\t\taddress tokenGive, \n\t\t\tuint amountGive, \n\t\t\tuint timestamp);\n\n\t\tevent Cancel(\n\t\t\tuint id,\n\t\t\taddress user,\n\t\t\taddress tokenGet,\n\t\t\tuint amountGet,\n\t\t\taddress tokenGive,\n\t\t\tuint amountGive,\n\t\t\tuint timestamp\n\t\t);\n\n\t\tevent Trade(\n\t\t\tuint id,\n\t\t\taddress user,\n\t\t\taddress tokenGet,\n\t\t\tuint amountGet,\n\t\t\taddress tokenGive,\n\t\t\tuint amountGive,\n\t\t\taddress userFill,\n\t\t\tuint timestamp\n\t\t);\n\n\t\t// Model the order\n\t\tstruct _Order {\n\t\t\tuint id;\n\t\t\taddress user;\n\t\t\taddress tokenGet;\n\t\t\tuint amountGet;\n\t\t\taddress tokenGive;\n\t\t\tuint amountGive;\n\t\t\tuint timestamp;\n\t\t}\n\n    constructor(address _feeAccount, uint256 _feePercent) {\n        feeAccount = _feeAccount;\n        feePercent = _feePercent;\n    }\n\n    receive() external payable {\n      revert();\n    }\n\n    function depositEther() public payable {\n      tokens[ETHER][msg.sender] = tokens[ETHER][msg.sender].add(msg.value);\n      emit Deposit(ETHER, msg.sender, msg.value, tokens[ETHER][msg.sender]);\n    }\n\n    function withdrawEther(uint256 _amount) public {\n        require(tokens[ETHER][msg.sender] >= _amount);\n        tokens[ETHER][msg.sender] = tokens[ETHER][msg.sender].sub(_amount);\n        payable(msg.sender).transfer(_amount);\n        emit Withdraw(ETHER, msg.sender, _amount, tokens[ETHER][msg.sender]);\n    }\n\n    // address to the actual token, in our case the address of token deploed in Token.sol.\n    function depositToken(address _token, uint256 _amount) public {\n        require(_token != ETHER);\n        // Send tokens to this contract, it could be any ERC20 token\n        // Instance of this token on the Ethereum network\n        require(Token(_token).transferFrom(msg.sender, address(this), _amount));\n        tokens[_token][msg.sender] = tokens[_token][msg.sender].add(_amount);\n        emit Deposit(_token, msg.sender, _amount, tokens[_token][msg.sender]);\n    }\n\n    function withdrawToken(address _token, uint256 _amount) public {\n\t\t\trequire(_token != ETHER);\n\t\t\trequire(Token(_token).transfer(msg.sender, _amount));\n      tokens[_token][msg.sender] = tokens[_token][msg.sender].sub(_amount);\n      emit Withdraw(_token, msg.sender, _amount, tokens[_token][msg.sender]);\n    }\n\n\t\tfunction balanceOf(address _token, address _user) public view returns (uint256) {\n\t\t\treturn tokens[_token][_user];\n\t\t}\n\n\t\t// Add the order to storage\n\t\tfunction makeOrder(address _tokenGet, uint256 _amountGet, address _tokenGive, uint256 _amountGive) public {\n\t\t\torderCount = orderCount.add(1);\n\t\t\torders[orderCount] = _Order(orderCount, msg.sender,_tokenGet, _amountGet, _tokenGive, _amountGive, block.timestamp);\n\t\t\t\n\t\t\temit Order(orderCount, msg.sender, _tokenGet, _amountGet, _tokenGive, _amountGive, block.timestamp);\n\t\t}\n\n\t\tfunction cancelOrder(uint256 _id) public {\n\t\t\t_Order storage _order = orders[_id];\n\t\t\trequire(address(_order.user) == msg.sender, \"You are not the owner of the order\"); // Must be senders order\n\t\t\trequire(_order.id == _id, \"The order does not exist\"); // The order must exist\n\t\t\torderCancelled[_id] = true;\n\t\t\temit Cancel(\n\t\t\t\t_id, \n\t\t\t\tmsg.sender, \n\t\t\t\t_order.tokenGet, \n\t\t\t\t_order.amountGet, \n\t\t\t\t_order.tokenGive, \n\t\t\t\t_order.amountGive, \n\t\t\t\tblock.timestamp);\n\t\t}\n\n\t\tfunction fillOrder(uint256 _id) public {\n\t\t\t//Require that the orderId is valid\n\t\t\trequire(_id > 0 && _id <= orderCount);\n\t\t\t//Check order not cancelled or filled already\n\t\t\trequire(!orderFilled[_id]);\n\t\t\trequire(!orderCancelled[_id]);\n\t\t\t// Fetch the order\n\t\t\t_Order storage _order = orders[_id];\n\t\t\t_trade(_order.id, _order.user, _order.tokenGet, _order.amountGet, _order.tokenGive, _order.amountGive);\n\t\t\t// Mark order as filled\n\t\t\torderFilled[_order.id] = true;\n\t\t}\n\n\t\tfunction _trade(uint256 _orderId, address _user, address _tokenGet, uint256 _amountGet, address _tokenGive, uint256 _amountGive) internal {\n\t\t\t// Fee paid by the user that fills the order a.k.a. msg.sender\n\t\t\tuint256 _feeAmount = _amountGive.mul(feePercent).div(100);\n\n\t\t\t// Execute trade\n\t\t\t// msg.sender fills the order that the user created\n\t\t\t// Fee deducted from _amountGet - Charge fees\n\t\t\ttokens[_tokenGet][msg.sender] = tokens[_tokenGet][msg.sender].sub(_amountGet.add(_feeAmount));\n\t\t\ttokens[_tokenGet][_user] = tokens[_tokenGet][_user].add(_amountGet);\n\t\t\ttokens[_tokenGet][feeAccount] = tokens[_tokenGet][feeAccount].add(_feeAmount);\n\t\t\ttokens[_tokenGive][_user] = tokens[_tokenGive][_user].sub(_amountGive);\n\t\t\ttokens[_tokenGive][msg.sender] = tokens[_tokenGive][msg.sender].add(_amountGive);\n\n\t\t\t// Emit trade event\n\t\t\temit Trade(_orderId, _user, _tokenGet, _amountGet, _tokenGive, _amountGive, msg.sender, block.timestamp);\n\t\t}\n}\n",
  "sourcePath": "/Users/josefinelantz/projects/swipswop/src/contracts/Exchange.sol",
  "compiler": {
    "name": "solc",
    "version": "0.8.0+commit.c7dfd78e.Emscripten.clang"
  },
  "schemaVersion": "3.4.1",
  "updatedAt": "2021-08-09T13:56:29.034Z",
  "networkType": "ethereum",
  "devdoc": {
    "kind": "dev",
    "methods": {},
    "version": 1
  },
  "userdoc": {
    "kind": "user",
    "methods": {},
    "version": 1
  }
}