{
  "contractName": "Token",
  "abi": [
    {
      "constant": true,
      "inputs": [],
      "name": "name",
      "outputs": [
        {
          "internalType": "string",
          "name": "",
          "type": "string"
        }
      ],
      "payable": false,
      "stateMutability": "view",
      "type": "function"
    }
  ],
  "bytecode": "0x60806040526040518060400160405280600881526020017f4d7920546f6b656e0000000000000000000000000000000000000000000000008152506000908051906020019061004f929190610062565b5034801561005c57600080fd5b50610107565b828054600181600116156101000203166002900490600052602060002090601f016020900481019282601f106100a357805160ff19168380011785556100d1565b828001600101855582156100d1579182015b828111156100d05782518255916020019190600101906100b5565b5b5090506100de91906100e2565b5090565b61010491905b808211156101005760008160009055506001016100e8565b5090565b90565b610186806101166000396000f3fe608060405234801561001057600080fd5b506004361061002b5760003560e01c806306fdde0314610030575b600080fd5b6100386100b3565b6040518080602001828103825283818151815260200191508051906020019080838360005b8381101561007857808201518184015260208101905061005d565b50505050905090810190601f1680156100a55780820380516001836020036101000a031916815260200191505b509250505060405180910390f35b60008054600181600116156101000203166002900480601f0160208091040260200160405190810160405280929190818152602001828054600181600116156101000203166002900480156101495780601f1061011e57610100808354040283529160200191610149565b820191906000526020600020905b81548152906001019060200180831161012c57829003601f168201915b50505050508156fea265627a7a723158206afed5c6425fd65c9c8a040a9d90b95e0cc327ef714c4aa2f154fa61e20f5e5064736f6c63430005100032",
  "source": "// SPDX-License-Identifier: MIT\npragma solidity >=0.4.22 <0.9.0;\n\ncontract Token {\n    // State variables\n    string public name = \"My Token\";\n    // string public symbol;\n    // uint8 public decimals;\n    // uint256 public totalSupply;\n\n    // mapping(address => uint256) private _balances;\n\n    // constructor(string memory _name, string memory _symbol) {\n    //     name = _name;\n    //     symbol = _symbol;\n    //     decimals = 18;\n    //     totalSupply = 100000000 * (10**18);\n    // }\n\n    // Transfers _value amount of tokens to address _to, and MUST fire the Transfer event. The function SHOULD throw if the message caller’s account balance does not have enough tokens to spend.\n\n    // Note Transfers of 0 values MUST be treated as normal transfers and fire the Transfer event.\n\n    //function transfer(address _to, uint256 _value) public returns (bool success)\n\n    // Transfers _value amount of tokens from address _from to address _to, and MUST fire the Transfer event.\n\n    // The transferFrom method is used for a withdraw workflow, allowing contracts to transfer tokens on your behalf. This can be used for example to allow a contract to transfer tokens on your behalf and/or to charge fees in sub-currencies. The function SHOULD throw unless the _from account has deliberately authorized the sender of the message via some mechanism.\n\n    // Note Transfers of 0 values MUST be treated as normal transfers and fire the Transfer event.\n\n    //function transferFrom(address _from, address _to, uint256 _value) public returns (bool success)\n\n    // The Approve function Allows a _spender to withdraw from _spenders' account multiple times, up to the _value amount. If this function is called again it overwrites the current allowance with _value.\n\n    // NOTE: To prevent attack vectors like the one described here and discussed here, clients SHOULD make sure to create user interfaces in such a way that they set the allowance first to 0 before setting it to another value for the same spender. THOUGH The contract itself shouldn’t enforce it, to allow backwards compatibility with contracts deployed before\n\n    // \tfunction approve(address _spender, uint256 _value) public returns (bool success)\n    //  \tallowance\n    // \t\tReturns the amount which _spender is still allowed to withdraw from _owner.\n\n    // function allowance(address _owner, address _spender) public view returns (uint256 remaining)\n}\n",
  "sourcePath": "/Users/josefinelantz/projects/swipswop/src/contracts/Token.sol",
  "compiler": {
    "name": "solc",
    "version": "0.5.16+commit.9c3226ce.Emscripten.clang"
  },
  "schemaVersion": "3.4.1",
  "updatedAt": "2021-06-16T13:13:00.845Z",
  "networkType": "ethereum",
  "devdoc": {
    "methods": {}
  },
  "userdoc": {
    "methods": {}
  }
}